:020000040802F0
:10000000183D0120B1B9020885AB020887AB020890
:1000100089AB02088BAB02088DAB02080000000020
:100020000000000000000000000000008FAB02088C
:1000300091AB02080000000093AB020895AB0208E8
:10004000EDBA0208F1BA0208F5BA0208F9BA0208D4
:10005000FDBA020801BB02089DAB0208A7AB02086B
:10006000B1AB0208BBAB0208C5AB020805BB020876
:1000700009BB02080DBB020811BB020815BB020830
:1000800019BB02081DBB020821BB020825BB0208E0
:1000900029BB02082DBB020831BB0208CFAB020806
:1000A000F5AB020835BB020839BB02083DBB0208AC
:1000B000FFAB020809AC020813AC020841BB0208FE
:1000C00045BB020849BB02084DBB020851BB0208F0
:1000D00055BB02081DAC020859BB020827AC020838
:1000E00031AC02085DBB020861BB020865BB0208B7
:1000F00069BB02086DBB020871BB020875BB020830
:1001000079BB02087DBB020881BB020885BB0208DF
:1001100089BB02088DBB020891BB020895BB02088F
:1001200099BB02089DBB0208A1BB0208A5BB02083F
:10013000A9BB0208ADBB0208B1BB0208B5BB0208EF
:10014000B9BB0208BDBB0208C1BB020865AC02080E
:10015000C5BB0208C9BB0208CDBB0208D1BB02085F
:10016000D5BB0208D9BB0208DDBB0208E1BB02080F
:10017000E5BB0208E9BB0208EDBB02080000000075
:10018000F1BB0208F5BB020880B5DFF8780801F082
:1001900062F9DFF87408807850F00100DFF8681821
:1001A0008870FEE72DE9F0472DED048B86B0050041
:1001B0000F0014001E0000205FF000085FF000092F
:1001C0009FEDBD0B9FEDA39B14210022EA465046F4
:1001D00001F04CF9DFF8340801F03DF93100C9B203
:1001E00089B2200001F032F9DFF8302D1068516833
:1001F00041EC180B3000C0B2002800F0B080DFF8EE
:10020000100801F028F93000C0B2204410F8010CA9
:100210002E2800F0A28020782E2800F09E80DFF8A3
:10022000F40701F018F93800C0B200281AD1F6B26C
:10023000320021006C46200001F050F9684601F0C0
:1002400041FA28802A88DFF8D017DFF8D40C01F0B3
:100250003FFADFF8D01C0870DFF8C40C01F0FBF89F
:10026000012081E0002010E00100C9B2615C2E296C
:100270000AD119F1010907E00100C9B2615C303906
:100280000A29F1D218F10108401C01003200C9B25C
:10029000D2B29142F0D3DFF8900C01F0DCF8424684
:1002A000D2B2DFF8881CDFF8780C01F011FADFF821
:1002B000741C0870DFF8680C01F0CDF84A46D2B221
:1002C000DFF86C1CDFF8580C01F002FADFF8541C60
:1002D0000870DFF84C0C01F0BEF84046C0B2401C7C
:1002E0003100C9B2884203D14846C0B201280AD0C1
:1002F00030005FFA88F8C0B280452ED15FFA89F9E4
:10030000B9F1000F29D1F6B2320021006C4620006D
:1003100001F0E4F8DFF81C0C01F09DF83800C0B2E1
:10032000022802D0FFB2032F15D1684601F0F3F97D
:1003300053EC102B51EC190B01F0F2F953EC182B84
:1003400001F0C4FA41EC100B01F0E4FB51EC100B8E
:1003500001F012FC2880012006E0002004E0DFF814
:10036000D80B01F078F8002006B0BDEC048BBDE896
:10037000F0872DE9F84F04000D009346012646272B
:100380005FF056085FF043095FF0530ADFF8AC0BEB
:1003900001F061F85946C9B289B2280001F056F857
:1003A0005846C0B2012805D12878FFB287424DD106
:1003B00004264BE05846C0B202283EDB5846C0B285
:1003C000284410F8010C5FFA88F840450BD1BBF1C6
:1003D0000103DBB22A0002212000FFF7E3FE01281F
:1003E00034D1022632E05846C0B2284410F8010C3D
:1003F0005FFA89F948450BD1BBF10103DBB22A0052
:1004000003212000FFF7CEFE01281FD103261DE0A7
:100410005846C0B2284410F8010C5FFA8AFA5045D9
:1004200014D1BBF10103DBB22A0000212000FFF749
:10043000B9FE01280AD1002608E05FFA8BFBBBF168
:10044000000F03D1DFF8840D01F005F83000C0B2D1
:10045000BDE8F28F0000000000C0A24038B52DEDCD
:10046000028B04000D009FED140BDFF8D40A00F09E
:10047000F2FF290089B2200000F0E8FF200001F01F
:100480004AF9B0EE408AF0EE608A53EC182BDFF8A0
:10049000B41ADFF88C0A01F01BF9DFF8881A08702B
:1004A000DFF87C0A00F0D7FFB0EE480AF0EE680AE9
:1004B000BDEC028B31BD0000000000000000000018
:1004C00070B58AB004000E0000200025DFF8780A1D
:1004D00000F0C1FF310089B2200000F0B7FF30000A
:1004E00080B20628C0F2B680002000E0401C010067
:1004F000320089B292B2914210D2010089B2615C9D
:10050000232905D169462A0092B221F812006D1CF8
:10051000290089B21529E9DB00209CE0280080B27F
:100520000228C0F29780DFF8200A00F094FF00262E
:1005300076E0300080B2002829D10422DFF80C1ABE
:10054000684633009BB230F81300204401F030FBC2
:1005500000281CD16846310089B200EB4100418877
:100560006846320092B230F81200091A091F89B2A7
:100570006846320092B230F812002044001DFFF7A6
:100580006DFFDFF8980953EC102B8260C3603000D8
:1005900080B2012829D10422DFF8341C68463300D8
:1005A0009BB230F81300204401F002FB00281CD15C
:1005B0006846310089B200EB41004188684632004C
:1005C00092B230F81200091A091F89B26846320047
:1005D00092B230F812002044001DFFF73FFFDFF811
:1005E0003C0953EC102B02604360DFF8300982684D
:1005F000C36843EC102B51EC100B0022002301F0D8
:100600000BFB0CD2DFF814090268436843EC102B93
:1006100051EC100B0022002301F0FEFA18D3761CD7
:10062000300080B2290089B2491E884212DA684639
:10063000310089B200EB410041886846320092B235
:1006400030F81200091A0529BFF673AF002002E046
:10065000012000E000200AB070BD2DE9F14FADF59A
:10066000805DAAB00C00002500205FF0000A002683
:1006700000205FF000090020ADF8000001205FF0CD
:10068000000B00275FF00008DFF8DC0B00F0E3FE52
:1006900045F20200225ADFF8D41BDFF8840801F08B
:1006A00017F8DFF88018087045F20200205A052874
:1006B000C0F29D8120784C284DD145F20200205A8D
:1006C000204410F8010C232845D1DFF8A40B00F0DA
:1006D000C2FE00201AE0010089B2615C0A2914D12F
:1006E00042A9320092B221F81200761C0DE00100FE
:1006F00089B2615C4C29EED140F6D801694452467A
:1007000092B221F812001AF1010A401C010045F2D0
:100710000202A25A89B29142E9D345F20200215A5B
:1007200042A8320092B200EB420030F8020C091AE3
:10073000B1F1010B5A4692B242A8310089B200EBE6
:10074000410030F8020C2044411C02A8019001989D
:1007500000F0C4FE0198DFF81C0B00F07CFE504650
:10076000310080B289B288421FD1DFF8040C00F05A
:1007700072FE012113E040F6D80068440A0092B2EC
:1007800030F8122042A80B009BB200EB430030F877
:10079000020C121A012A01D119F10109491C0800A1
:1007A000320080B292B29042E5D3594689B202A893
:1007B000FFF786FE012840F01781DFF8B80B00F044
:1007C0004AFE01251FFA89F919F101091FFA8AFA6F
:1007D000D14540F009815FF0000A0DF58059D9F844
:1007E000A8904FE0C0B200284AD15FF0000841F65F
:1007F0005A3039F800100720414309EB0100BDF8D9
:100800000010A0F80310BDF80070012538E00100C9
:10081000C9B20329E6D141F65A3039F80010072051
:10082000414309EB0100A0F80370012141F65A3061
:1008300039F800200720424309F8021041F65A30E7
:1008400039F800100720414309EB0100BDF8001002
:10085000A0F8011041F65A3039F800100720414342
:1008600009EB0100A0F8058018F1010841F65A30A3
:1008700039F80000401C41F65A3129F801000125E1
:100880001AF1010A5046310080B289B2884260D222
:1008900042A8514689B230F8111040F6D800684499
:1008A000524692B230F81200091A4A1E100080B265
:1008B0000F28E5DA100080B20028E1D0D2B240F66D
:1008C000D8006844514689B230F811002044411CD8
:1008D0006846FFF74EFD0100C9B2012939D0010079
:1008E000C9B2022993D141F65A3039F800100720D5
:1008F000414309EB0100A0F80370002141F65A3092
:1009000039F800200720424309F8021041F65A3016
:1009100039F800100720414309EB0100BDF8001031
:10092000A0F8011041F65A3039F800100720414371
:1009300009EB0100A0F8058018F1010841F65A30D2
:1009400039F80000401C41F65A3129F80100012510
:1009500096E77F1C41F6583029F80070DFF8180A36
:1009600000F079FD41F65A3039F80020DFF80C1A12
:10097000DFF8AC0500F0ACFEDFF8A8150870DFF872
:10098000A00500F068FD002426E041F6583039F853
:100990000020DFF8EC19DFF8880500F099FEDFF899
:1009A00084150870DFF8780500F055FD210089B244
:1009B0000720414309EB0100B0F80320DFF8C41918
:1009C000DFF85C0500F084FEDFF858150870DFF8EA
:1009D000500500F040FD641C200041F65A3139F802
:1009E000011080B28842D0D32800C0B205E0DFF801
:1009F000980900F030FD2800C0B20DF5805D2BB0E5
:100A0000BDE8F08F60B70208E47C0020CCB9020892
:100A1000D8B90208E4B90208F0B9020830B40200FB
:100A200000200023002401E05B1C641C20000D005A
:100A300080B2ADB2A8423ED2200080B2105C4C28F9
:100A400032D0200080B2105C0A282DD0200080B265
:100A5000105C2E2828D0200080B2105C532823D0B0
:100A6000200080B2105C46281ED0200080B2105CAE
:100A7000562819D0200080B2105C432814D02000E2
:100A800080B2105C23280FD0200080B2105C582860
:100A90000AD0200080B2105C3D2805D0200080B232
:100AA000105C30380A2804D2200080B2105C002884
:100AB000BAD1002006E089B29BB2994201D101204F
:100AC00000E0002030BC7047F0B5ADF5806D8DB012
:100AD00004000D000020ADF80A000020ADF8080069
:100AE0000020ADF806000020ADF804000020ADF8AD
:100AF0000C000020ADF80E000026DFF8900800F092
:100B0000AAFCB5F84C1815F5856000F09FFC002094
:100B10006870152045F20A016054B5F84C08102899
:100B2000C0F2F181022215F585610DF10A07380046
:100B300000F0D4FC022205F22C4102AF380000F094
:100B4000CDFC022205F22E410DF10607380000F01F
:100B5000C5FC022215F5866101AF380000F0BEFC2D
:100B6000BDF80A20DFF82818DFF8B40300F0B0FD64
:100B7000DFF8B0130870DFF8A80300F06CFCBDF8D4
:100B80000820DFF81018DFF8980300F0A1FDDFF867
:100B900094130870E24800F05EFCBDF80620DFF810
:100BA000F817DF4800F094FDDE490870DC4800F0DB
:100BB00052FCBDF80420DFF8E417D94800F088FDA6
:100BC000D8490870D64800F046FCBDF80400102152
:100BD00090FBF1F201FB120080B2002840F08C8102
:100BE000BDF804000A30B5F84C18884240F0848102
:100BF000DFF8AC0700F02FFC002000900023BDF8C8
:100C0000042005F2324104A801F034F845F2040052
:100C1000215ABDF80600014389B2002940F0C9807D
:100C2000DFF8800700F017FCBDF8041004A800F0FE
:100C30000DFCBDF8080001287CD1022204A903AFF5
:100C4000380000F04BFCDFF8600700F004FCBDF852
:100C50000C20DFF85817B24800F03AFDB14908708F
:100C6000AF4800F0F8FBBDF80C00BDF80A10884250
:100C700040F04281BDF80A100DF11200FFF7CEFEE0
:100C8000012840F0398145F20C0100222600300095
:100C900000F0ECFBBDF80C0045F2020160521C2193
:100CA000DFF80C0700F0D2FBBDF80A20DFF8E016F1
:100CB0009B4800F00DFD9B490870994800F0CBFB64
:100CC000BDF80C20DFF8E416954800F001FD9549C9
:100CD0000870934800F0BFFB45F20200225ADFF88B
:100CE000D4168F4800F0F4FC8E4908708C4800F050
:100CF000B2FB45F20200225A0DF11201260030002B
:100D000000F0ECFBBDF8080045F204016052BDF8AC
:100D1000060045F20801605211206870062045F275
:100D20000A016054A62645F20200215A200000F074
:100D30008DFBE1E0BDF808000228C0F2DD8045F23D
:100D40000C0100222600300000F090FBBDF80420CA
:100D500004A92600300000F0C1FBBDF80A0045F2EE
:100D600002016052BDF8080045F204016052BDF86E
:100D7000060045F20801605211206870062045F215
:100D80000A0160541126DFF8300600F064FBDFF83A
:100D9000140600F060FBBDF8041014F5A0400088B4
:100DA000204400F053FBBDF8040014F5A041088076
:100DB000A2E045F20400205A002800F09D80BDF812
:100DC000041004A800F042FBBDF8060045F208013B
:100DD000615A491C884240F08F80BDF80600401CD3
:100DE000BDF80810884249D1022204A90DF10E066F
:100DF000300000F073FBBDF80E200DF1120114F568
:100E0000A040008804EB0006300000F067FBBDF84E
:100E1000060045F208016052062045F20A016054BE
:100E200011206870A626BDF80E20DFF890153C480A
:100E300000F04EFC3B490870394800F00CFBBDF84F
:100E40000E1014F5A0400088204400F0FFFABDF811
:100E50000620DFF86C15324800F03AFC3149087082
:100E60002F4800F0F8FADFF85C0500F0F4FA45F2DC
:100E70000200215A200000F0E9FA3DE0BDF8081018
:100E8000BDF80600091A022936DBBDF8042004A9C2
:100E900014F5A040008804EB0006300000F01EFBB3
:100EA000BDF8060045F208016052062045F20A012D
:100EB0006054112068701126BDF80620DFF808156F
:100EC000174800F005FC174908701648017889B2E8
:100ED000134800F0BBFABDF8041014F5A0400088D8
:100EE000204400F0B3FA14F5A0400188BDF80400D6
:100EF000411814F5A0400180DFF8D00400F0ABFAEF
:100F00003000C0B205E0DFF8C80400F0A4FA3000F9
:100F1000C0B20DF5806D0DB0F0BD0000947C0020D6
:100F2000107C00200F7D0020FCB90208BCB502082F
:100F300070B7020808BA0208C8B3020814BA020857
:100F400080B7020890B70208D0B50208D4BA0208E8
:100F500070B5040000250020DFF8780400F07BFA6B
:100F6000B4F82624DFF87014C34800F0B1FBDFF8B2
:100F70006C140870C04800F06EFAB4F82614A01C77
:100F800000F064FA2079617909020E18320092B2F9
:100F9000DFF84C14B84800F09BFBDFF840140870F1
:100FA000B54800F058FAB4F82604310089B2083187
:100FB000884240F0EB80A0780D2840F0E780E07890
:100FC0000A2840F0E380B4F82604205C0D2840F0A5
:100FD000DD80B4F82604204440780A2840F0D6800A
:100FE000B4F82604811F89B2A01D00F0BDFE0128BF
:100FF00040F0CC80DFF8DC0300F02DFAA079552812
:1010000040F0C48055202070DFF8C80300F023FAB8
:10101000E07910280BD1300080B2022807D11020CF
:1010200060701025DFF8BC0300F015FAAEE0E0793F
:1010300012280BD1300080B2022807D11220607034
:101040001225DFF8A40300F006FA9FE0E0791428E7
:101050000BD1300080B2022807D114206070142513
:10106000DFF8880300F0F7F990E0E07915280BD15C
:10107000300080B2022807D1152060701525DFF8F6
:10108000700300F0E8F981E0E07913280BD130001B
:1010900080B2022807D1132060701325DFF85403B3
:1010A00000F0D9F972E0E07911282CD1300080B23B
:1010B000032828DB112060701120CF4800F0CBF905
:1010C000B01EA4F84C08B4F84C2814F1080114F52B
:1010D0008565280000F002FAB4F84C28C749664834
:1010E00000F0F6FABD490870634800F0B4F9B4F8AE
:1010F0004C1814F5856000F0A9F92100C048FFF7ED
:10110000E3FC050042E0E07916280AD1300080B205
:10111000022806D1BB4800F09EF916206070162503
:1011200034E0E07917282ED1300080B203282ADB82
:10113000B54800F090F9172060701720B01EA4F891
:101140004C08B4F84C2814F1080114F58565280002
:1011500000F0C4F9B4F84C28A849474800F0B8FAA0
:101160009E490870444800F076F9B4F84C1814F51C
:10117000856000F06BF92300A44AA549A54800F05A
:101180007DF8050002E0A44800F065F9A34800F0EE
:1011900062F92800C0B270BD38B504000D00A04847
:1011A00000F059F929002000FFF757FA012807D16C
:1011B0009C4800F050F954209B490870012003E03E
:1011C000462099490870002032BD0000E0B30208B3
:1011D000DCBA02082DE9F04706000F0090461D001A
:1011E0000020280080B2802190FBF1F201FB120068
:1011F000002801D1002000E00120089C290089B2CC
:10120000802291FBF2F910EB0909884800F023F9DC
:10121000200080B2002812D15FF0000A09E0844863
:1012200000F019F91AF10500C0B200F0BDFD1AF185
:10123000010A50464946C0B2C9B28842EFD33A00CB
:1012400092B23100404680B200F0C4FD1720A4B233
:10125000641CADB2AC4203D1764800F0FCF8182013
:10126000C0B2BDE8F087000020BA0208A0B70208AB
:101270002CBA020838BA0208107C00202DE9F84385
:10128000ADF5846D04000D0016001F005FF000082E
:101290000A2100220DF10409484600F0E7F86648EB
:1012A00000F0D9F8B7F84C08B0F5826F59D100209A
:1012B00000900023B7F84C2817F5856104A800F0CA
:1012C000D9FC02220DF11A012F00380000F006F9B6
:1012D000022207A93700380000F000F902220DF1C0
:1012E0001E012700380000F0F9F82A8853495448B5
:1012F00000F0EEF939490870514800F0ACF8328836
:1013000050494F4800F0E4F9344908704C4800F067
:10131000A2F822884C494A4800F0DAF92F490870AF
:10132000474800F098F80A2204A901A800F040FC00
:10133000002816D130882988884212D22888B0F532
:10134000A87F0EDA20888038B0F5C07F09D23088B7
:1013500000902B8822884FF4806108A8FFF73AFF9D
:1013600080464046C0B20DF5806D09B0BDE8F083FF
:10137000B0B7020854B20208C0B70208E4B50208C8
:10138000F8B5020870B202080CB60208D0B702081D
:10139000E0B70208F0B7020800B8020820B6020859
:1013A000F8B3020810B8020810B4020828B4020802
:1013B0008CB2020834B6020848B6020840B40208EB
:1013C0002CB1020844BA02084CB1020858B4020811
:1013D00020B8020830B8020870B402080F7D00205F
:1013E0005CB6020840B8020850B8020860B80208AB
:1013F00070B8020880B8020850BA0208A8B2020801
:101400008C00002088B4020890B80208FA7C002002
:10141000FC7C0020F87C002070B6020884B602082C
:1014200098B60208A0B80208965000205CBA0208DC
:10143000B0B80208C0B8020868BA0208D0B80208FA
:10144000107C0020E0B80208F0B8020880B589B22C
:1014500000F01CFD01BD10B50400200000F044FDAB
:10146000010089B2200000F011FD10BD62F30F22CF
:1014700062F31F42401810F0030308D0C91A1FD3AB
:10148000DB0748BF00F8012D28BF20F8022D13000C
:1014900030B414461546103928BF20E93C00FAD86C
:1014A000490728BF20E90C0048BF40F8042D8900F7
:1014B00028BF20F8022D48BF00F8012D30BC70472E
:1014C000C91818BF00F8012DCB0728BF00F8012D5F
:1014D00070470268531C03601170704762B38B073A
:1014E00008D0521E11F8013B00F8013B00F02480A7
:1014F0008B07F6D1830740F0208000BF103A07D356
:1015000030B4B1E83810103AA0E83810F9D230BC45
:10151000530724BFB1E80810A0E8081044BF51F8F1
:10152000043B40F8043BD20724BF31F8022B20F8DB
:10153000022B44BF0B7803707047121F17D35B0058
:1015400009D151F8043B20F8023B1B0C121F20F874
:10155000023BF6D20BE051F8043B00F8013B1B0ABA
:1015600020F8023B1B0C121F00F8013BF3D238BFDE
:10157000121D521E24BF11F8013B00F8013BF8D8A0
:1015800070472E002DE9F84F84B00E4617460BB178
:1015900000221A600446A04601E008F1010898F80C
:1015A000000000F0BCFC0028F7D198F800002D28BE
:1015B00016BF2B2818F8015B2B25002F019603D4AA
:1015C000012F01D0252F03DB002E55D0346053E0CE
:1015D000002F0CDD102F04BF98F80000302802BF48
:1015E00098F8010040F02000782811D10CE098F81C
:1015F0000000302818BF0A270AD198F8010040F0EF
:101600002000782803D1102708F1020800E00827FD
:10161000CDF80C8001E008F1010898F800003028AE
:10162000F9D0064E7E4414364FF0000906F128002A
:10163000CDF80880CA468DF800000BE0E098000065
:101640009DF80010401ACA465FFA80FB07FB09B9F3
:1016500008F1010898F8000000F06BFC01463A46DA
:1016600006F1280000F070FC0028E9D103994145FB
:1016700004D1019800B10460002020E00299F05DDF
:10168000A8EB0101081A002810D406DCB9EB0B0105
:1016900003D3B1FBF7F0504508D0AFF300800498B6
:1016A00008B1012101604FF0FF3903E02D2D08BF83
:1016B000C9F10009019808B1C0F80080484605B09A
:1016C000BDE8F08FFFE700230A2200215AE700005F
:1016D0000CB430B583B00A4606A902910446002531
:1016E0000194009502AB01A9084878441E3000F02F
:1016F00057FC019A157000284EBF04460198041B40
:10170000204603B030BC5DF80CFB00BFC7FDFFFFF7
:1017100041EC100B01BD80B501F084FDF8E74300FA
:1017200030B540F2FF7C1CEA11541DBF1CEA135572
:10173000644565453FE0641981EA030C6FF35F532C
:101740000CF0004C43F48013C90241F0004141EA1F
:10175000505EC5021100A5FB020200284FF00000F8
:10176000EEFB01204FF00001E3FB052118BF42F022
:101770000102401800214941E3FB0E01A4F58064F9
:101780000D0302D292184041494154F1010470DD29
:10179000450872F1004250F1000051EB0451A1F5EF
:1017A000801102D441EA0C0130BD40F2FF7E4CEAC8
:1017B0000E51002030BD0CEA1355644518BF654535
:1017C00081EA030C0CF0004C41D050EA410E1CBFE2
:1017D00052EA430E02E06146002030BD24422C4410
:1017E0001BD15FEA050EF6D0090302BF01460020B7
:1017F000AEF1140EB1FA81F5AEEB050401FA05FE67
:101800000C35C5F1200100FA05F5C8404EEA000E7E
:101810006FF35F5343F480139CE733F00043B3FA54
:1018200083F504BFB2FA82FE75440B3D641BB5F12B
:10183000200E2FBF02FA0EF3AB40C5F1200E22FAA4
:101840000EFE38BF43EA0E03AA40641C7CE750EA50
:10185000410E14BF52EA430E6FF000014FF4001521
:1018600015EB430F8EBF194615EB410F9DE7B4D81A
:1018700030BDD4F10104B4F120050FDAC4F1200524
:10188000520828BF42F0010210FA05FE01FA05F5E0
:101890007244E2BFE0402843E1400FE0352C9ADC7F
:1018A000C5F1200452EA400220FA05F218BF42F0C6
:1018B000010231FA05F0A1400A43002172F1004211
:1018C00050F1000051EB0C0130BD0000F0B540F2CA
:1018D000FF7581EA030C0CF0004C15EA11541DBF92
:1018E00015EA1357AC42AF42E5E0BC41C1F3130126
:1018F000C3F31303801A994143F4801304D2641E86
:101900000018494180185941C90241EA5051B1FBC0
:10191000F3F603FB1611A2FB0675D7EBC020A94115
:1019200002D2761E80185941C90241EA5051B1FBDA
:10193000F3FE03FB1E11A2FB0E75D7EBC020A941DD
:1019400003D2AEF1010E80185941890241EA90514B
:10195000760546EA8E2EB1FBF3F603FB1611A2FBC9
:101960000675D7EB8020A94102D2761E8018594116
:10197000C90241EA50514EEA060EB1FBF3F603FBF1
:101980001611A2FB0675D7EBC020A94102D2761E24
:1019900080185941C90241EA5051B1FBF3F703FBEA
:1019A0001711A2FB0735D3EBC020A94167F100074F
:1019B0000CBF004247F0010766F3D5274FEA1E31FE
:1019C000B80814F5806412DDBD0775F1004250EBD4
:1019D0000E5051EB045111F5801F5CBF41EA0C0120
:1019E000F0BD4CF07F6141F0E0410020F0BDBD074B
:1019F0006D0840EA0E5041F48011D4F10104B4F1B5
:101A000020060ADAC4F120060200E04001FA06F3DB
:101A1000E1401843B24015430EE0342C13DCC6F10C
:101A2000200445EA40056D0820FA06F2154321FA24
:101A300006F0A1400D43002175F1004250F1000075
:101A400051EB0C01F0BD00205FEA0C01F0BDCFB9F5
:101A500092185B41B3FA83F704BFB2FA82F6BF195A
:101A60000B3FB7F120062FBF02FA06F3BB40C7F1C8
:101A7000200622FA06F638BF3343BA401CB1E419F7
:101A8000641E33E77F4231F00041B1FA81F404BFB4
:101A9000B0FA80F6A4190B3CB4F120062FBF00FA6F
:101AA00006F1A140C4F1200620FA06F638BF314302
:101AB000A0403C1B1AE7AC421ABF05EA1357AF42DD
:101AC00012E050EA41061CBF52EA4306BFE750EA63
:101AD0004107304661461CBF41EA0551F0BD52EA5C
:101AE000430C08BFC143F0BD00204FF4001616EBB5
:101AF000410F98BF16EB430F08BF16EB410F24BFF1
:101B0000C14305E016EB430F0CBF61464CEA05519B
:101B1000F0BD000051EC100B00B500F003F841ECF3
:101B2000100B00BD40F2FF7C0CEA115240F2FE3374
:101B3000D21A17DD352A1DDAB2F1150308DA6FEA79
:101B40004C53D34031EA5301C918994300207047E0
:101B50006FF00002DA4030EA5200801841F10001D3
:101B60009043704701F0004104BF41F07C5141F4C3
:101B70007001002070470000C1F30A5340F21E427A
:101B8000D31A0CDDCA0283F3070342EA505242F033
:101B90000042DA4002EBE17282EAE17070476FEADC
:101BA000E17203F2E13008B182F0004070470000BA
:101BB0000300002013F0030F09D0521E22BF13F8B8
:101BC000010B11F801CBB0EB0C00F3D0704711F012
:101BD000030F14D1121F22BF53F8040B51F804CB8A
:101BE0006045F7D0121D0AD200BA9CFA8CFCB0EB0B
:101BF0000C0038BF6FF0000088BF01207047521EF4
:101C000022BF13F8010B11F801CBB0EB0C00F6D09A
:101C1000521C08BF1046704741EA030C50EA4C0CB6
:101C200052EA0C0C4FF4001C09D307D01CEB410FF7
:101C30009CBF1CEB430F994208BF904270471CEBBE
:101C4000410FFBD88B4208BF8242704710B400237B
:101C50000AE01A00D2B2845C1A00D2B28A5C544004
:101C60001A00D2B284545B1C1A00D2B2102AF0DBE4
:101C700010BC70472DE9F84384B007008846150072
:101C80000020002B06D1102216496C462000FFF7D9
:101C900025FC05E010226C4619002000FFF71EFC11
:101CA0000C9C002C00D1104C002613E01022414661
:101CB000B9464846FFF712FC01226946380001F098
:101CC000C0FA21003800FFF7C1FF444618F11008A0
:101CD0001037761CB6EB151FE8D305B0BDE8F083CE
:101CE0000000000010B7020820B7020810B400225C
:101CF0000022002216E00B885B000B8010E00B88AE
:101D00001B1213F080030400E4B214F0800494EA80
:101D1000030FF0D00B8848F2050494EA43040C80CA
:101D20004000521C1300DBB2082BE8DB10BC7047EC
:101D3000F8B504000D0016000020ADF800000020EA
:101D4000002708E06946380080B210FA85F0205C70
:101D5000FFF7CCFF7F1C3800310080B289B2884287
:101D6000F0D3BDF80000F2BD7CB504000D000020EA
:101D70000020ADF80000AA1E92B200212000FFF75B
:101D8000D7FF06000222ADB204EB0500811E6C46AF
:101D90002000FFF7A3FBBDF80000B6B2B04201D1AE
:101DA000012000E0002076BD80B586B000210091C2
:101DB0000021019102210591C0B2039001200490FD
:101DC00001F09BFC694601A801F080FD01F0A7FC31
:101DD00007B000BDF8B50E0017000400A4B24FF420
:101DE00080614C4314F1006480B2403840F2BF116E
:101DF000884221D201F081FC002514E0280080B245
:101E000014EB4001280080B206EB400040782A0025
:101E100092B216F8122052EA002292B20023012058
:101E200001F024FC6D1C2800390089B2490880B2F9
:101E30008842E3D301F073FCF1BD00887047F8B528
:101E400006000C001500B6B24FF48060464316F150
:101E500000660020002711E0380080B216EB400039
:101E6000FFF7EBFF390089B204F8110080B2000AD5
:101E7000390089B204EB410148707F1C3800290009
:101E800089B2490880B28842E6D3F1BD80B50A0024
:101E900013009BB203214B4392B201000F4801F0A3
:101EA00036FE01BD80B50A0013009BB292B201005C
:101EB0000B4801F02CFE01BD38B504000D000948A7
:101EC000FFF7C9FA290089B22000FFF7BFFA2900FD
:101ED00089B22000FFF7E6FF31BD0000CC7B002077
:101EE000887B002040B9020800F10103810704D07B
:101EF00010F8011B820781B1FAD10268A2F1013109
:101F0000914311F0803104BF50F8042FF6E709BA6D
:101F1000B1FA81F100EBD100401CC01A704710B536
:101F2000044602F011FA01462046096ABDE8104055
:101F3000084710B5044602F007FA01462046896AB0
:101F4000BDE8104008470000C9B2830706D0521E02
:101F500022D310F8013B9942F7D11FE0083A13D37E
:101F600002F1040241EA012141EA014150F8043B37
:101F7000121F21BF4B40A3F1013C2CEA030C1CF0C3
:101F8000803FF3D0C9B2001F083210F8013B521E47
:101F900028BF91EA030FF8D818BF0120401E7047F0
:101FA0002DE9F14FB0B0924604910DF142013A9AF9
:101FB0002B9199464A7000200AE01AF8011B0498F8
:101FC000309A90470028049000F06B860D98401CD2
:101FD0000D909AF8000050B12528EED10021002282
:101FE0000791089209910A920B910C9204E00D98C6
:101FF00000F059BE41F001011AF8010F2028F9D074
:1020000023280CD02B2804D02D2805D0302809D027
:102010000BE041F00201EFE741F00401ECE741F091
:102020000801E9E741F01001E6E72A280FD1D9F8C5
:10203000002052F8040BC9F8002000280F9003D5A7
:1020400040420F9041F004010AF1010A14E00F929E
:10205000DFF8583C0AE00F98984205DA00EB80045C
:1020600002EB4402303A0F920AF1010A9AF800207A
:10207000A2F130000A28EED39AF800002E2803D0EF
:102080004FF0FF320E9229E01AF8010F2A2809D1E9
:10209000D9F8000050F8042BC9F800000E920AF19C
:1020A000010A1BE02D280CBF0AF1010A00200022C2
:1020B0000E92DFF8F84B0BE040B90E9AA24205DA17
:1020C00002EB820503EB4503303B0E930AF1010A54
:1020D0009AF80030A3F130020A2AEDD3ADF840108F
:1020E0000FF6CC309AF8001002F036F908B11AF861
:1020F000010B8DF842009DF84200682805D19AF83E
:10210000000068280CD1622106E06C2804BF9AF810
:1021100000006C2804D171218DF842100AF1010AE7
:1021200012A806901AF801BBBBF125012CD01C396E
:1021300000F0D781091F022940F2D381133900F042
:10214000E284093900F0CD81891E00F07785491EAF
:1021500000F02485491E022940F2C381091F00F0C6
:102160001D85491F00F03281491E00F0CC84491EB4
:1021700000F0D880C91E0DD0891E00F0C484C91E8D
:1021800000F0C18400F065BD25238DF848300121A1
:1021900000F06ABDD9F8000050F8044BC9F80000FF
:1021A000002C059440F0AB802B994878002800F073
:1021B000A1804FF0FF340FF6003002F0D9F8201A5A
:1021C00040F06F8500F051BD01236A4602A93046F8
:1021D00000F042FE002840F064856D1EF4D1309678
:1021E000079D12AF75B1309E17F8012B02A930463A
:1021F00000F022FE002801D46D1EF5D10028309693
:1022000040F04F850A9D3020002D8DF800000CDD38
:10221000309E01236A4602A9304600F01DFE0028C8
:1022200040F03F856D1EF4D13096059F089D75B135
:10223000309E17F8012B02A9304600F0FDFD002862
:1022400001D46D1EF5D10028309640F02A850B9DF3
:102250003020002D8DF800000CDD309E01236A46F1
:1022600002A9304600F0F8FD002840F01A856D1EE6
:10227000F4D1309605980899099D471875B1309E9C
:1022800017F8012B02A9304600F0D6FD002801D432
:102290006D1EF5D10028309640F003850C9D30204E
:1022A000002D8DF800000CDD309E01236A4602A946
:1022B000304600F0D1FD002840F0F3846D1EF4D1CB
:1022C00030969DF8400041077FF583AE2020002C1A
:1022D0008DF800007FF77DAE309D01236A4602A98C
:1022E000284600F0B9FD002840F0DB84641EF4D1DC
:1022F00030956EE60FF6C030059000F0B6BC0E9D2E
:10230000002D04D52046FFF7EFFD044607E02A46DE
:102310002046FFF719FE002814BF041B2C46089422
:1023200000F0A3BCD9F8001051F8040BC9F8001054
:1023300020F00004002121F0FF3512ABCDE9024569
:102340000593DDE9022306993C2413B90AB90E98D6
:10235000A8B102F00F053035641EEEB23A2E08DA4D
:10236000120942EA03721B090D5508BF002A02D167
:1023700005E02735F4E705980D19A842E9D30819B7
:102380000590C4F13C020E98089282420ADABDF828
:102390004010821A4FF6EF7001400A92ADF84010DB
:1023A00000F063BC002840F160849DF8400000F01C
:1023B0001400102840F059840F9B07990A985B1A63
:1023C0001B1A9A1A002A40F350849AE32B994878F2
:1023D00020B14FF0FF340FF6B020EEE69DF842003A
:1023E000622860D0682817D06A283FD06C2806D0B1
:1023F000712847D074282CD07A281DD062E0D9F8F3
:10240000001051F8040BC9F80010002866D14FF0F5
:10241000FF340FF68C20D0E6D9F8001051F8040BE9
:10242000C9F8001020B94FF0FF340FF67420C4E64D
:102430000D99018000F019BCD9F8001051F8040B77
:10244000C9F80010002849D14FF0FF340FF6502092
:10245000B3E6D9F8001051F8040BC9F800100028B1
:102460003CD14FF0FF340FF63820A6E6D9F8001023
:1024700051F8040BC9F8001080B94FF0FF340FF683
:1024800020209AE6D9F8001051F8040BC9F8001082
:1024900020B94FF0FF340FF608208EE60D9AD317BF
:1024A000C0E90023E1E3D9F8001051F8040BC9F8A2
:1024B000001020B94FF0FF340FF6E4107DE60D99BF
:1024C0000170D2E3D9F8001051F8040BC9F80010DC
:1024D00020B94FF0FF340FF6C8106EE60D99016079
:1024E000C3E3D9F80020D21D22F00702C9F800206A
:1024F000D2E900010832C9F80020CDE90201C80F75
:1025000002D007982D210AE0BDF84000810702D5CE
:1025100007982B2103E0C00705D50798202112AAB0
:102520001154401C079012A80799DDE90245431891
:102530004BF020006128059321AE0BD00E980028A7
:1025400002D506200E9005E001BF4BF02000672861
:1025500001210E91DDE9020148004015401C0A46A8
:102560000DD109030BD0ABF1610703201A2F08909E
:1025700002D20FF648110DE00FF644110AE070B9CF
:1025800012030CD1ABF1610703201A2F08901CD362
:102590000FF6341103221846FEF7A0FF65E3DDE9CC
:1025A00002016A4601F004FFCDE902014BF0200070
:1025B000612811D1059830210170821CBBF1610F97
:1025C00005920CBF7821582102E00FF6F801E1E7EF
:1025D00041700798801C0790DDE9020120F000029D
:1025E00031F0004308BF002A02D10025002445E154
:1025F0004BF02008B8F1610F40F095800E9800284C
:1026000047BF21210191401C0190019F7F1C204662
:10261000294600220023DDE9024501F001FF00996F
:102620008DF8842038BF85F00045091F002F0091E8
:102630000DF1850034DD06462046294600220023A0
:10264000FFF7EAFA2BD21C2201F004FF04460D46E4
:10265000FFF792FAFF1F002F804609DD01F098FF77
:1026600002460B462046294602F062F804460D4613
:10267000F01D0721B8F1000F0CDD491E5EBF08F008
:102680000F0200F8012D4FEA2818F3D502E00022CE
:1026900000F8012D491EFAD5C61D002FCCDC3046AE
:1026A0000DF18501401A019905468842C8BF0D46C3
:1026B000002D0DF185062FD4854206DA0DF1850037
:1026C000415D0829A8BF0F2000DA0020294621AA71
:1026D0000A4400E06D1E12F80139491E8342F9D008
:1026E0000F2804D10DF18500425C521C4254002990
:1026F00004D50098001D21AE6D1C0090681E0BD4FF
:1027000031180A783032D3B23A2BA4BF5A443A3A3D
:10271000401E01F80129F4D50E98002840F1AD8043
:10272000691E0E91A9E00099DFF8FC2647F2975048
:10273000414391FBF2F2009225F00045C2F10702FD
:10274000002A04DD2046294600F04AFB0BE05242F5
:102750000020DFF8D81600F043FB02460B46204667
:102760002946FFF7B3F80446B8F1660F0E9806BF86
:10277000009F0A3706273F18142FC8BF14273020A0
:102780008DF884000D460DF1850000E03046002FE5
:1027900035DD06462046294602F03CF801460A4649
:1027A00006F1080304200A26B2FBF6F606EB860EB5
:1027B000A2EB4E02303203F8012C0A22B6FBF2F2F1
:1027C00002EB820EA6EB4E063036401E03F8026D79
:1027D000E9D1083F002F03F10806D7DD084602F0D3
:1027E0002BF802460B462046294601F0A1FF0022A5
:1027F000DFF83C36FEF794FF04460D46CAE70DF1BC
:102800008501401A0DF1850604E00099491E401E1D
:102810000091761C31783029F7D0B8F1660F02D1DB
:102820000099491C04E0B8F1650F0CBF012100219B
:102830000E9D4D19A842B8BF451E002D1DD48542DE
:1028400004DA705D3428C8BF392000DC3020294606
:10285000721E531800E06D1E13F80149491E844290
:10286000F9D0392802D1705C401C7054002904D57D
:102870000098401C16466D1C0090009C01F066FDFF
:10288000406A0778DDF8388028B2002802DC01258C
:102890000FF238664BF02000662808BF641C16D083
:1028A000672846D120B210F1040F48DB404546DAD4
:1028B0009DF84000641C010703D428B24045D8BFEE
:1028C000804620B2B8EB000848BF4FF000080FFA6E
:1028D00084FBBBF1000F00F3B5800898411C089100
:1028E000302205990A54B8F1000F03DC9DF840002E
:1028F000010704D50898411C089105990F5418EB5D
:102900000B0FB8BFC8F1000424B260420B90A04482
:102910002AB29045B8BF4546059B08982DB2099547
:102920002A4631461844FEF7D9FDA8EB05000C9065
:10293000D2E0BBF1610F17D14FF0700B19E028B254
:10294000404504DA9DF840100A0758BF8046B8F1A8
:10295000010848BF4FF00008BBF1670F14BF4FF0EC
:10296000450B4FF0650B04E0BBF1410F08BF4FF082
:10297000500B0898411C0891B8F1000F059916F802
:10298000012B0A5403DC9DF8400001071AD5089872
:10299000411C0891B8F1000F05990F5412DD6D1E0E
:1029A00028B280450598089BB8BF45462AB23146F3
:1029B0001844FEF793FD08992DB269180891A8EB09
:1029C00005000B9005980899084421B2002980F869
:1029D00000B003D42B224270821C04E02D224270EE
:1029E0000C46821C644200212CAB20460AE00446BF
:1029F0000A2094FBF0F000EB8005A4EB450403F8FB
:102A0000014B491C00B20028F1DC012906DC4BF027
:102A10002000652804BF302002F8010B00292CABF0
:102A200008D1302002F8010B06E0491E585C303016
:102A300002F8010B0029F8DC059908980844121ADD
:102A4000099249E028B221B288421CDA0598089B15
:102A50002AB231461844FEF741FD08992DB2691893
:102A60000891ABEB0500B8F1000F0B9003DC9DF86B
:102A70004000020704D5059847540999491C09915B
:102A8000CDF8308028E00598089B22B231461844E2
:102A9000FEF724FD08982D1B5844B8F1000F08904C
:102AA00003DC9DF840100A0703D5411C08910599E5
:102AB0000F5428B280450598089BB8BF45462AB2F6
:102AC00006EB0B011844FEF709FD08982DB22818F3
:102AD0000890A8EB05000B909DF8400000F0140052
:102AE000102840F0C280079A08990B988A18099913
:102AF00082180C988A1882180F98824280F2B5804A
:102B0000821A0A92B1E09DF84200622808D0682833
:102B10000ED06A2814D06C281FD0712810D01CE069
:102B2000D9F8001051F8040BC9F80010C0B21AE02F
:102B3000D9F8001051F8040BC9F8001080B212E067
:102B4000D9F80020D21D22F00702C9F80020D2E9EE
:102B500000010832C9F8002006E0D9F8001051F849
:102B6000040BC9F800100021CDE902019DF84000D6
:102B700001075AD5DDE90223002B08BF002A54D0F3
:102B80004BF02000782850D1079812A930220A541F
:102B9000401C431C079301F800B046E09DF842003A
:102BA000622808D068280ED06A2814D06C281FD05C
:102BB000712810D01CE0D9F8001051F8040BC9F8A6
:102BC000001040B21AE0D9F8001051F8040BC9F80F
:102BD000001000B212E0D9F80020D21D22F0070246
:102BE000C9F80020D2E900010832C9F8002006E047
:102BF000D9F8001051F8040BC9F80010C117CDE93D
:102C00000201002902D507982D210AE0BDF84000F5
:102C1000810702D507982B2103E0C00705D5079847
:102C2000202112AA1154401C079012A807990144B0
:102C3000059102A8594600F04DF816E001200790D2
:102C4000D9F8000050F8041BC9F800008DF84810AE
:102C50000BE025210122BBF1000F8DF848100792EF
:102C600003D08DF849B0022107910F9A07980A996D
:102C70000C9C121A0898521A0B99121A0998521A97
:102C8000121A9DF84000141B41073FF5A9AA202005
:102C9000002C8DF800007FF7A3AA309E2546FFF791
:102CA00093BA4FF0FF3031B0BDE8F08FCBCCCC0CF5
:102CB000686A6C747A4C00007072696E74665F7337
:102CC0003A2062616420257320617267756D656EBC
:102CD000740000002DE9FC4304466F29256908BFF4
:102CE000082605D041F02000782814BF0A261026B7
:102CF0003C27D4E90023642918BF692990469946E6
:102D000005D1002B03D5D8F1000869EB4909B9F1C9
:102D1000000F08BFB8F1000F0CD1206B50B9082E7E
:102D20003AD194F83800010736D530203B2785F892
:102D30003B0031E08DF80010404649463246F3171B
:102D400001F088FD3032D0B27F1E3A2801970EDAAA
:102D5000EA55404649463246F31701F07BFD80466E
:102D60005FEA010908BFB8F1000F05D108E09DF83E
:102D700000001218513AEBE7E068E9198842DBD30A
:102D8000082E09D194F83800010705D5E85D3028F0
:102D900002D07F1E3020E855C7F13C02A261E9193C
:102DA000E160206B824208DA821A22624FF6EF70ED
:102DB000218F01402187BDE8F38300280ED594F8C8
:102DC000380000F01400102808D1636B6169206A94
:102DD0005B1A1B1A9A1A002AC8BF2262BDE8F38345
:102DE0002DE9D04306460F4614464FF00008DFF8A1
:102DF000449012E0E00707D542464B46304639463C
:102E0000FEF78EFC06460F464046494642464B4674
:102E1000FEF786FC641080468946002CEAD13046D5
:102E20003946BDE8D0830000A08601000000F03FD5
:102E300084D797410000244010B503460C46114644
:102E4000A0689847A06020B1E06A401CE0620020C2
:102E500010BD4FF0FF3010BDF8B505460E461746C1
:102E60001C4600205CB117F8011BB068A847B06091
:102E700030B1F06A401CF0620020641EF3D1F2BD54
:102E80004FF0FF30F2BD00007072696E74665F73C0
:102E90003A20256E20646973616C6C6F77656400FD
:102EA0007072696E74663A2062616420256E2061DA
:102EB0007267756D656E7400000000006E616E00D3
:102EC0004E414E00696E6600494E460030000000DB
:102ED000F8B52DED048B140082B041EC180B1D46A3
:102EE00000F0D88020F0000231F0004308BF002A33
:102EF00000F0D08048004015401C02D1090300F0CA
:102F0000C980002C9FED679B55D56442644F7F4478
:102F100007F5C77708260CE0E00707D5D7E90023B7
:102F200051EC190BFEF7FCFB41EC190B6408083758
:102F3000761E002C18BF002EEED16A4651EC180BFD
:102F400001F036FA009E53EC192BFEF7BFFC324617
:102F500001F080FA20F0000231F0004308BF002A9F
:102F600041EC180B00F0808048004015401C01D156
:102F7000090379D0002C77D06A4651EC180B01F088
:102F800017FA009E994A9A4BFEF7CAFB324601F0A7
:102F900061FA20F0000231F0004308BF002A41EC42
:102FA000180B61D048004015401C01D109035BD0CB
:102FB000641EE1D158E057DD394F7F4407F1E20745
:102FC0000826E00707D5D7E9002351EC190BFEF7D7
:102FD000A7FB41EC190B64100837761E002C01DDAD
:102FE000002EEED16A4651EC180B01F0E1F92646AD
:102FF00041EC100B009C53EC102B51EC190BFEF71D
:103000008FFB224601F026FA20F0000231F0004347
:1030100008BF002A41EC180B26D048004015401C80
:1030200001D1090320D0002E1EDD6A4651EC180B99
:1030300001F0BEF9009C6F4A774BFEF771FB224608
:1030400001F008FA20F0000231F0004308BF002A26
:1030500041EC180B08D048004015401C01D1090371
:1030600002D0761E002EE0DC51EC180B20F000029E
:1030700031F0004308BF002A05D048004015401C2D
:1030800008D1090306D1AFF300801DB1286840F0D4
:103090000100286002B051EC180BBDEC048BF4BDAC
:1030A000F07E0000000000000000F03F2DE9F14D2F
:1030B00081B05FEA03082DED028B84B01CBF0020B5
:1030C000C8F80000079D0C46934607A801F0DAFCFB
:1030D000C11020F00800012801F0010A32D10220BD
:1030E000009001AB07992246284601F05DFD0400DF
:1030F00008BF9FED4A0B1ED0029801F049FA022C3E
:1031000041EC100B17DB03AF661E9FED3B8B51ECC0
:10311000100B53EC182BFEF703FB044657F8040B77
:103120000D4601F035FA22462B4601F043FA761E91
:1031300041EC100BEBD1019800EB0B02434651EC34
:10314000100B33E0022836D1009001AB07992246DC
:10315000284601F005FE040008BF9FED300B1ED08D
:10316000029801F015FA022C41EC100B17DB03AFAB
:10317000661E9FED238B51EC100B53EC182BFEF7C2
:10318000CFFA044657F8040B0D4601F001FA224627
:103190002B4601F00FFA761E41EC100BEBD1019A91
:1031A00051EC100B01F056F943465A46FFF790FEDA
:1031B00041EC100B0AE0032808BF9FED130B05D06C
:1031C00004280CBF9FED120B9FED140BBAF1000FFA
:1031D00005D051EC100B81F0004141EC100B04B014
:1031E00051EC100BBDEC028BBDE8FC8D436FAC6461
:1031F0002806C80A3CBF737F0000000065CDCD41A2
:10320000000000000000B041000000000000F07F5E
:10321000FFFFFFFFFFFFFF7FDD4F15750000000080
:10322000000000000023002200213FE70100080009
:1032300040B240B2C01110F01B0090EA4100C0B291
:1032400070472DE9F84F04000D0016003000C0B2A1
:1032500000284CD0002111E01000C0B22B5C1000FF
:10326000C0B2284410F8040C43401000C0B22B54E4
:10327000521C1000C0B21028EEDB491C0800C0B27E
:103280000A2823DADFF8D8036A7B825C2878424078
:10329000DFF8D0030B00DBB2C05C42402A70DFF8DD
:1032A000C003AA7B825C687842406A70DFF8B00392
:1032B000EA7B825CA8784240AA70DFF8A4032A7BEC
:1032C000825CE8784240EA700422D2E700210AE0FA
:1032D0000800C0B2225C0800C0B2285C424008006E
:1032E000C0B22254491C0800C0B21028F0DB0027ED
:1032F00011E00800C0B22A5C0800C0B2284410F8EF
:10330000040C42400800C0B22A54491C0800C0B254
:103310001028EEDB7F1C3800C0B20A2880F28981B9
:103320003000C0B2002832D00F210CE00800C0B23B
:103330002A5C0800C0B2284410F8040C424008007F
:10334000C0B22A54491E0800C0B20428EEDAC448AC
:10335000697B415C28784140C2483A00D2B252426F
:103360001044407A41402970BD48A97B415C68788F
:1033700041406970BA48E97B415CA8784140A97036
:10338000B748297B415CE8784140E9702AE0002198
:103390000CE0B34A0800C0B2235C0800C0B2285C4D
:1033A0004340D05C0A00D2B2A054491C0800C0B20D
:1033B0001028EEDB607861796170617A6171617B00
:1033C00061726073A078A179A27AA270A27BA271C7
:1033D000A072A173E07BE17AE173E179E172E178B7
:1033E000E171E0703800C0B2002803D03000C0B2F4
:1033F000002809D13800C0B2092880F2CB80300003
:10340000C0B2002840F0C6805FF00008BDE05FEA6F
:1034100088093000C0B2002842D04846C0B2205CC3
:103420004946C9B2214489784840C0B2FFF7FEFE40
:10343000C0B2FFF7FBFE82464846C0B22044407847
:103440004946C9B22144C9784840C0B2FFF7EEFEF0
:10345000C0B2FFF7EBFE4946C9B2615C9AEA0101CE
:103460004A46D2B2A1544946C9B2214449784140A2
:103470004A46D2B2224451704946C9B221448978A1
:103480009AEA010A4946C9B2214481F802A0494694
:10349000C9B22144C97848404946C9B22144C870DC
:1034A0004846C0B214F800A04846C0B22044407854
:1034B00090EA0A0A4846C0B22044807890EA0A0A94
:1034C0004846C0B22044C07890EA0A0A4846C0B2D2
:1034D00014F800B04846C0B2205C4946C9B2214445
:1034E00049784840C0B2FFF7A1FE4946C9B2615CC5
:1034F00048409AEA00004946C9B260544846C0B202
:10350000204440784946C9B2214489784840C0B235
:10351000FFF78CFE4946C9B22144497848409AEAEF
:1035200000004946C9B2214448704846C0B2204410
:1035300080784946C9B22144C9784840C0B2FFF7F3
:1035400075FE4946C9B22144897848409AEA00008C
:103550004946C9B2214488704846C0B22044C07868
:103560009BEA000B5846C0B2FFF760FE4946C9B25D
:103570002144C97848409AEA000A5FFA89F904EBC5
:10358000090080F803A018F101084046C0B20428E1
:10359000FFF63DAF3000C0B200282BD0607B617ACF
:1035A000617361796172617861716070A07AA17BE9
:1035B000A278A272A279A273A070A171E078E179D9
:1035C000E170E17AE171E17BE172E07300210800D2
:1035D000C0B21028BFF69EAE23480A00D2B2A25C49
:1035E000825C0800C0B2285C42400800C0B222548D
:1035F000491CECE71A48697B415C2878414019482E
:103600003A00D2B2805C414029701548A97B415CE8
:103610006878414069701248E97B415CA878414074
:10362000A9700F48297B415CE8784140E97004218A
:103630006CE6F6B2002E10D100210AE00800C0B2FC
:10364000225C0800C0B2285C42400800C0B222548C
:10365000491C0800C0B21028F0DBBDE8F18F000063
:10366000A4AC0208C8BA0208A4AD0208F8B5060066
:103670000F0014001D000120DFF83802007E012831
:1036800001D1022038E00120DFF8281208764CF240
:10369000503000F04CF80100C9B2002927D12200B7
:1036A0002B00002E05D11100C9B2380000F0ACF893
:1036B00011E0012E05D1110089B2380000F090F818
:1036C00009E0022E04D11100380000F075F802E084
:1036D000380000F057F84CF2503000F028F8DFF8CE
:1036E000D811096849084900DFF8CC211160002190
:1036F000DFF8C0211176C0B2F2BD00206E49096822
:1037000000290AD56E496F4A11606F496D4A1160F0
:1037100069490968002900D50120C0B27047664890
:10372000006850F00040644908600020704738B5D8
:103730000400002000205F49C86101F015FC05006D
:103740005E480068C0030BD514F1010FF8D0002CBF
:1037500004D001F009FC401B8442F1D2032010E0A8
:1037600056480068C00702D50120544908605348F4
:10377000006810F0F20F03D000F058F8012000E0CC
:10378000002032BD10B44C49096831F440714A4CF4
:1037900021604949096851F44071474C216046490C
:1037A000096851F00101444C21600260BFF36F8F42
:1037B000001D036010BC70473F4A126832F440722B
:1037C0003D4B1A603C4A126852F400723A4B1A6040
:1037D000394A126852F00102374B1A600160704793
:1037E000354A126832F44072334B1A60324A12681A
:1037F00052F48072304B1A602F4A126852F0010264
:103800002D4B1A60018070472B4A126832F44072C7
:10381000294B1A60284A1268274B1A60264A1268F8
:1038200052F00102244B1A6001707047234800686F
:10383000C00608D51F48C06950F010001D49C86176
:1038400010201E4908601D480068800608D51948E8
:10385000C06950F008001749C86120201749086066
:1038600016480068400608D51248C06950F00400A8
:103870001049C861402011490860104800680006DE
:1038800008D50C48C06950F002000A49C861802080
:103890000A49086009480068800708D50548C069DA
:1038A00050F020000349C8610220044908607047B5
:1038B00000000000747C0020103C02400C3C0240E0
:1038C00023016745043C0240AB89EFCDF8B5040005
:1038D0000D0001200020DFF8B401007E012801D195
:1038E00002204CE00120DFF8A41108764CF25030A1
:1038F000FFF71DFF06003000C0B2002839D15FF08D
:10390000FF3028602068012812D161682069C0B2A8
:1039100000F036F84CF25030FFF709FF0600DFF8F0
:103920007001006830F00400DFF8641108601EE0E8
:10393000A76800E07F1CE168A06841188F4216D29A
:103940002169C9B2380000F031F84CF25030FFF76D
:10395000EEFE0600DFF83801006830F0FA00DFF80C
:10396000301108603000C0B20028E3D02F6000F0B2
:1039700053F80020DFF8141108763000C0B2F2BD11
:103980004349096831F44071414A1160404909686E
:1039900051F004013E4A11603D490968C0B251EA44
:1039A000002151F480313A480160704700220A003A
:1039B000D2B2002A01D100210EE00A00D2B2012ABF
:1039C00002D14FF4807107E0C9B2022902D14FF44D
:1039D000007101E04FF440712D4A126832F44072D8
:1039E0002B4B1A602A4A12681143294A1160284950
:1039F000096831F0F801264A11602549096851EA41
:103A0000C00151F00201224801602148006850F4D1
:103A100080301F49086070471E480068800517D530
:103A20001C48006830F400701A49086019480068A2
:103A300050F40060174908601648006830F40060D0
:103A4000144908601348006850F400701149086078
:103A500010480068400517D50E48006830F48060B3
:103A60000C4908600B48006850F480500949086010
:103A70000848006830F4805006490860054800682E
:103A800050F480600349086070470000747C002097
:103A9000103C0240003C024010B50400002C01D153
:103AA000012033E0A0690028FFD194F83D000028F0
:103AB00005D1002084F83C00200001F09FFA24206A
:103AC00084F83D002068C06830F400502168C86068
:103AD000200000F039FB2068006930F49040216834
:103AE00008612068406930F02A0021684861206838
:103AF000C06850F400502168C86000202064202075
:103B000084F83D00202084F83E00002010BD2DE9FF
:103B1000FC4106000D0014001F00002096F83D0037
:103B2000202857D1002D03D0200080B2002801D1D9
:103B3000012050E096F83C00012801D102204AE023
:103B4000012086F83C0000203064212086F83D00EA
:103B500001F00AFA8046B484F484B068B0F5805F5E
:103B600004D13069002801D1002401E02C00002597
:103B7000002086F83C000FE0207831684860641C23
:103B800007E0002CF8D12888C005C00D31684860D6
:103B9000AD1CF08C401EF084F08C00280AD00097F9
:103BA000434600228021300000F077F90028E8D059
:103BB000032010E00097434600224021300000F02F
:103BC0006CF9002801D0032005E0202086F83D0094
:103BD000002000E00220BDE8F68180B590F83E307C
:103BE000202B16D1002903D013009BB2002B01D14A
:103BF00001200FE090F83C30012B01D1022009E0B8
:103C0000012380F83C300023036392B200F08AF96C
:103C100000E0022002BD38B5040020680168206879
:103C2000C268206843690020002011F00F000028BE
:103C300007D18D0605D5950603D5200000F00FFAB3
:103C40002AE1002870D0D80702D412F4907F6BD0FC
:103C50000800C00705D5D00503D5206C50F0010041
:103C60002064480706D51800C00703D5206C50F023
:103C700002002064880706D51800C00703D5206C11
:103C800050F004002064080707D5900601D4D80737
:103C900003D5206C50F008002064206C002842D02E
:103CA000880604D5900602D5200000F0D8F92068D7
:103CB0004069800910F00100216C090701D4002837
:103CC0002CD0200000F050F920684069400621D532
:103CD0002068143050E8001F31F04001206810F1D6
:103CE000140242E800100028F2D1A06B00280DD089
:103CF0000FF2D920A16B0865A06B01F077FA0028BC
:103D000011D0A06BA16B096D88470CE0200001F079
:103D100080FA08E0200001F07CFA04E0200001F0C5
:103D200078FA00202064B7E0206B012840F0A480DE
:103D3000C80640F1A180D00640F19E80002000908E
:103D40002068006800902068406800900098206813
:103D50004069400655D5A06B00684068010089B2F3
:103D600000294DD00100A28D89B2914248D2E08550
:103D7000A06BC069B0F5807F3BD020680C3050E864
:103D8000001F31F48071206810F10C0242E800102D
:103D90000028F2D12068143050E8001F490849007B
:103DA000206810F1140242E800100028F2D12068C7
:103DB000143050E8001F31F04001206810F1140267
:103DC00042E800100028F2D1202084F83E000020B4
:103DD000206320680C3050E8001F31F0100120688B
:103DE00010F10C0242E800100028F2D1A06B01F0A3
:103DF000AFF9A18DE08D091A89B2200001F00AFA0D
:103E00004AE0A08DE18D411AE08D002833D00800F2
:103E100080B200282FD020680C3050E8002F32F4F8
:103E20009072206810F10C0343E800200028F2D1C2
:103E30002068143050E8002F52085200206810F11A
:103E4000140343E800200028F2D1202084F83E002B
:103E50000020206320680C3050E8002F32F0100260
:103E6000206810F10C0343E800200028F2D189B249
:103E7000200001F0CFF90FE0080605D5100603D5A4
:103E8000200000F0ADF807E0480605D5500603D540
:103E9000200000F0D6F8FFE731BD2DE9F041050024
:103EA0000E0090461F00069C286800683040B04213
:103EB00001D1012000E000204146C9B288422ED144
:103EC00014F1010FF0D0002C04D001F04DF8C01B0C
:103ED0008442E9D228680C3050E8001F31F4D071D8
:103EE000286810F10C0242E800100028F2D128687E
:103EF000143050E8001F49084900286810F11402E6
:103F000042E800100028F2D1202085F83D00202052
:103F100085F83E00002085F83C00032000E00020EA
:103F2000BDE8F08181628285C28500210164222181
:103F300080F83E10002180F83C100169002905D06E
:103F40000168C96851F480710268D16001684969EB
:103F500051F00101026851610168C96851F0200106
:103F60000068C1600020704701680C3151E8002FE3
:103F700032F49072016811F10C0343E8002100292A
:103F8000F2D10168143151E8002F52085200016843
:103F900011F1140343E800210029F2D1016B01293A
:103FA0000CD101680C3151E8002F32F01002016889
:103FB00011F10C0343E800210029F2D1202180F8FF
:103FC0003E100021016370470000000080B5806B47
:103FD0000021C1850021C18401F01BF901BD000051
:103FE00090F83D1021292AD18168B1F5805F0CD16C
:103FF0000169002909D1016A0988C905C90D02684A
:104000005160016A891C016205E0016A4A1C026272
:10401000097802685160C18C491EC18489B20029A7
:104020000BD10168C96831F080010268D160016874
:10403000C96851F040010068C160002000E0022022
:10404000704780B50168C96831F040010268D160ED
:10405000202180F83D1001F0DEF8002002BD80B57F
:1040600090F83E1022296DD18168B1F5805F0DD1A5
:10407000016900290AD10021816A02685268D205CB
:10408000D20D0A80816A891C816217E0826A002150
:104090008168B1F5805F05D08168002906D101698A
:1040A000002903D101684968117004E0016849687A
:1040B00011F07F011170816A491C8162C18D491E16
:1040C000C18589B200293BD10168C96831F020015E
:1040D0000268D1600168C96831F480710268D160FA
:1040E000016849694908490002685161202180F846
:1040F0003E10016B01291FD10021016301680C31C1
:1041000051E8002F32F01002016811F10C0343E86E
:1041100000210029F2D101680968C90608D50021EB
:10412000009101680968009101684968009100994F
:10413000818D01F06FF801E001F08EF9002002E0BE
:10414000002000E0022002BDF8B5040020680169EB
:1041500031F44051E068014320680161A1682069A1
:10416000014360690143E06901432068C268644813
:10417000024011432068C1602068416931F44071F8
:10418000A06901432068416120685E49884203D0EC
:1041900020685D49884203D101F06EFA050002E013
:1041A00001F05FFA0500E069B0F5004F54D1192025
:1041B000A0FB050162680223A3FB022300F04AFB77
:1041C0006421B0FBF1F61920A0FB0501626802230F
:1041D000A3FB022300F03EFB07001920A0FB050112
:1041E00062680223A3FB022300F034FB6421B0FBCE
:1041F000F1F17FF0630000FB0171C80032306421EF
:10420000B0FBF1F77F0017F4F87717EB06171920CA
:10421000A0FB050162680223A3FB022300F01AFB46
:1042200006001920A0FB050162680223A3FB0223FC
:1042300000F010FB6421B0FBF1F17FF0630000FBA4
:104240000166F00032306421B0FBF1F010F007009D
:10425000C7192068876052E01920A0FB0501626839
:104260000423A3FB022300F0F5FA6421B0FBF1F66E
:104270001920A0FB050162680423A3FB022300F0C0
:10428000E9FA07001920A0FB050162680423A3FBDB
:10429000022300F0DFFA6421B0FBF1F17FF063004C
:1042A00000FB0171080132306421B0FBF1F717F017
:1042B000F00717EB06171920A0FB0501626804231D
:1042C000A3FB022300F0C6FA06001920A0FB05019B
:1042D00062680423A3FB022300F0BCFA6421B0FB54
:1042E000F1F17FF0630000FB0166300132306421A0
:1042F000B0FBF1F010F00F00C71920688760F1BD26
:10430000F369FFFF0010014000140140613807E02D
:1043100005E0A0F161011A2901D20120704741385E
:104320001A288041C00F7047A0F10901052901D367
:10433000202801D10120704700207047A0F14101E1
:104340001A2938BF2030704701487047014870472C
:104350004000002008000020C9B202788A421AB149
:104360001CBF10F8012FF9E718BF002070470000AC
:1043700080B500B906A005490B681BB122220021B7
:10438000984701E001F092F9222002BDF47C002060
:10439000636F6E73747261696E742068616E646CB1
:1043A00065723A20626164206D65737361676500B0
:1043B00010B5144600F002F8226010BDC1F30A5394
:1043C00043B14A0012F5001F28D2A3F2FE32A1EB3E
:1043D0000251704750EA410C20D001F0004C31EA04
:1043E0000C01B1FA81F204BFB0FA80F3D2180B3A93
:1043F000B2F120032CBF00FA03F1914041EA0C0115
:104400003EBFC2F1200C20FA0CF3194390405242F7
:1044100040F2FD33D21A01EB03517047002270477E
:1044200041EA030C50EA4C0C52EA0C0C4FF4001C0D
:1044300009D307D01CEB410F9CBF1CEB430F8B42F1
:1044400008BF824270471CEB430FFBD8994208BF5C
:1044500090427047124254D440F2FF7C1CEA115340
:104460000FD0634531D09B1863453CBF01EB02512F
:10447000704701F0004141EA0C510020AFF3008089
:10448000704750EA410320D001F0004C91EA0C0142
:104490001CD0B1FA81F30B3B9A420DD9D21A994044
:1044A00051EA0C01C3F1200C20FA0CFC6144984045
:1044B000531C40F2FF7CD7E7914041EA0C01C2F166
:1044C000200C20FA0CF3194390407047B0FA80F3A7
:1044D0001533202BE0D3202AEED3203A203B9A42FA
:1044E00009D9D21A00FA03F141EA0C010020531C49
:1044F00040F2FF7CB8E700FA02F141EA0C0100202B
:104500007047524240F2FF7C1CEA11530DD06345C4
:10451000DBD0B2EB030C3CBFA1EB025170470CF1B6
:10452000010221EA035141F4801150EA410CCCD040
:1045300001F0004C352A27DC30B481EA0C01B2F1DD
:10454000200309DAC2F12003044601FA03F5D04042
:104550002843D1409C400CE0C3F12002450020FAE2
:1045600003F418BF44F0010421FA03F091400C4316
:10457000002174F1004550F1000051EB0C01244280
:1045800030BC7FF47BAF70476146002076E70000C7
:1045900010F0004160B148BF4042B0FA80F2904054
:1045A000D21CC2F5846241EA025202EBD0214005DE
:1045B0007047000070B491EA030F4FF0004540F1DE
:1045C000BF806B40841A71EB030604D26E40001B5F
:1045D000B141121973414FF4001C1CEB410F34BF61
:1045E0007CEB430683E00C0DA4EB1356362E00F350
:1045F0007C80012E45EAC32341DC43EA525312BFBB
:10460000D20292025B08240545EAC12141EA5051D9
:10461000D2EBC020994125D407D1B0FA80F610FA28
:1046200006F162D00020203608E0B1FA81F6B140F0
:10463000C6F1200220FA02F21143B0404FEAF474AE
:10464000B4EB465434F001064FEA74040AD8D6F5A8
:104650000016760D04F00044F04061FA06F2504076
:10466000F1404840C00A40EA415021F0004128BFD3
:104670005FEA500550F1000044EBD12135E0DB0A40
:1046800045EAC121C90AB6F120050EDD42EA02421F
:10469000120CC5F1200603FA06F6EB4042EA0605C5
:1046A0006D42984161F100010DE062FA06F5F240B9
:1046B000554063FA06FC82EA0C02F3405A406D4210
:1046C000904161EB030111F4801F05D1641E620566
:1046D00002D06D004041494121F48011430875F139
:1046E000004350F1000041EB045170BC70471CEBDB
:1046F000410F15D223F0004352EA43060BD04FEA94
:104700004C0CBCEB410F04D80C0D661E342EB7DDEB
:10471000EBE7801A994150EA410608BF0021E4E71F
:1047200008BF1CEB430F28BF6FF00001DDE700005E
:1047300070B491EA030F4FF000457FF543AF6B4033
:10474000841A71EB030603D2001BB14112197341A5
:104750004FF4001C1CEB410F34BF7CEB430442E0E0
:104760000C0DA4EB1356352E4FDC45EAC323DB0AB0
:1047700045EAC121C912B6F120050DDD63FA05F63F
:10478000EB4086EA0305124218BF45F00105C01848
:1047900051F100010CD213E062FA06F5F2405540E7
:1047A000F3415A40B340F3405A408018594107D36F
:1047B00049085FEA30005FEA350528BF45F001058A
:1047C00001F58011420875F1004250F1000041EB03
:1047D00004514E0016F5001F70BC38BF7047002012
:1047E000090D090570471CEB410F10D252EA430630
:1047F0000BD0BCEB410F05D80C0DAB43661E342E1D
:10480000B6DD02E0AB438018594170BC704770BC04
:1048100070470000400D40F21E4C40EAC120BCEB46
:10482000115C40F0004003D48CF30701C84070478E
:104830006FEAE1707047000050B1B0FA80F1884033
:10484000C91CC1F58461090501EBD0214005704701
:1048500001467047BBBBE1B1B2F5803F80F07E807E
:10486000022A1ED98C46B1FBF2F102FB11C31B04D4
:1048700043EA1043B3FBF2FC02FB1C3380B240EA74
:104880000343B3FBF2F002FB103240EA0C4000237A
:104890007047022A05D98446B0FBF2F002FB10C231
:1048A00070474AB105D100F0010249085FEA3000C3
:1048B000704700220023704700F0FCBE0B0002008E
:1048C000002100207047904271EB030CF6D3B3F542
:1048D000803F2FD2F0B5B3FA83F7B1FA81F4A7F194
:1048E0000F0E3D1B5340CEF1200602FA0EF2F341AB
:1048F0005340B5F10F0746D80F3C2C444140C4F15A
:104900002006A040F1414140B1FBF3F603FB161134
:10491000A2FB0645001BA94102D2761E8018594110
:1049200080EA010221FA0EF362FA0EF200215A40E7
:104930003046F0BD30B4B1FBF3FC03FB1C11A2FB0D
:104940000C45001BA94103D2ACF1010C8018594160
:1049500030BC02460B46604600217047B2F1807FB2
:1049600065D3F0B5B2FA82F7B1FA81F4C7F10F0658
:104970003D1B22FA06F307F1110EF24120355A4091
:10498000B5F10F07B8D94140C4F12006A040F1416C
:104990004140B1FBF3FC03FB1C11A2FB0C45001BC7
:1049A000A94103D2BCF1010C801859410F2F12D339
:1049B0000F3FC90341EA5041B1FBF3F603FB161167
:1049C000A2FB0645D4EBC030A94102D2761E801866
:1049D000594146EACC3C07B34140C7F12006B840F4
:1049E000F1414140B1FBF3F603FB1611A2FB064572
:1049F000001BA94102D2761E8018594180EA0102AB
:104A000021FA0EF3C7F1200462FA0EF20CFA07F055
:104A10005A402CFA04F13043F0BD80EA010221FA39
:104A20000EF3002162FA0EF260465A40F0BD8C4649
:104A3000B1FBF2F102FB11C31B0243EA1063B3FBAB
:104A4000F2FC02FB1C331B024CEA002043EA106319
:104A5000B3FBF2FC02FB1C331B024CEA002043EACE
:104A60001063B3FBF2FC02FB1C331B024CEA002078
:104A700043EA1063B3FBF2FC02FB1C324CEA002059
:104A8000002370472DE9F84305460C462E680027A1
:104A900000E0761C3078FDF742FA0028F9D1307832
:104AA0002D280CBF08272B2800D1761C307840F029
:104AB00020016E2927D1707840F02000612802BFC4
:104AC000B07840F020006E2802D02E68002746E023
:104AD000F61CB046042798F8000028283FD118F8A3
:104AE000019F484600F0E7FD0028F8D1A9F1300009
:104AF0000A28F4D398F800005F28F0D029282ED196
:104B000008F101062BE069292CD1707840F02000D3
:104B10006E2802BFB07840F02000662802D02E68D0
:104B200000271CE016F8030F40F02000692802BFA0
:104B3000707840F020006E2847F003070FD1B0785E
:104B400040F02000692802BFF07840F0200074286F
:104B500005D1307940F02000792808BF761DF4B1E6
:104B600026601CE0302802BF707840F020007828D2
:104B700013D1B01C01782E2908BF401C0078A0F189
:104B80006101062921BFA0F14102062A30380A2816
:104B900003D2B61C47F0020701E047F001072E6080
:104BA0003846BDE8F28300002DE9F14F8CB04FF09C
:104BB0000008169DC34605EBC5052D2DC3F800B0B2
:104BC0009246C8BF2D25C3F804B0D94602E0491C5F
:104BD0004FF0010908783028F9D0002411E0186856
:104BE000401C18600A78302A08D04FF0010805E010
:104BF000AC42F4DA30380DF80400641C491C4FF064
:104C000001090878A0F130020A2AF1D30F461E46A6
:104C1000FFF79CFB406A39780278914208BF7F1CFD
:104C2000002C48460ED1397830290BD13068401E0F
:104C300030607F1C0120F6E7302918BF4FF00108D3
:104C40007F1C01203978A1F130020A2A0AD2AC4235
:104C5000F2DAA1F130000DF80400641C3268521E33
:104C60003260EDE7B8F1000F0DD00DF1FF314A5D74
:104C7000521C4A5507E00DF1FF32115D49B9326807
:104C8000521C3260641E002CF5DC04BF8DF800B0AD
:104C90000124002857D04FF0090994FBF9F9C4F119
:104CA000090309EBC9010B44092193FBF1F100222F
:104CB00001EBC101591A1AD04FF0010B17E056F859
:104CC0002B1001EB810105EB410146F82B100CE0A4
:104CD000092193FBF1F101EBC1011DF80250591AB2
:104CE000EDD10BF1010B46F82B505B1C521CA2427C
:104CF000EEDB397841F02001652924D1394617F8D7
:104D0000012F164D2B2A16BF2D2A17F8014B2B24E5
:104D10000022002308E0AB4204DA03EB83020CEB31
:104D20004203303B7F1C012297F800C0ACF1300EEB
:104D3000BEF10A0FEFD32D2C346808BF5B421B195C
:104D4000336002B90F46BAF1000F03D000B90C9FCF
:104D5000CAF8007058460DB0BDE8F08F00E1F505C7
:104D60002DE9F14F8CB04FF0000ADDF85880C3F800
:104D700000A0C8EBC808B8F1230FC8BF4FF0230844
:104D80009146C3F804A0002701E0491C01270878D8
:104D90003028FAD068A201925FF000046CA2009261
:104DA0000DF1080B0D461E460EE03068401C3060C9
:104DB00008E0A045F9DB019A0099801A085C0BF81D
:104DC0000400641C6D1C012795F800105AA01622DF
:104DD000FDF7BAF80028ECD1FFF7B8FA406A297855
:104DE0000278914208BF6D1CB4B92878302813D1DD
:104DF0003168491E31606D1C0127F6E7A04509DBCB
:104E0000019A0099801A085C0BF80400641C316850
:104E1000491E31606D1C01272978162246A0FDF736
:104E200093F80028EAD1A04517DA1BF808100729E3
:104E300006DD0DF1070111F80820521C01F80820C9
:104E400044463268521C326007E00DF10702115DE2
:104E500049B93268521C3260641E002CF5DC04BF74
:104E60008DF808A0012431688900002F316055D0E9
:104E70004FF0070C94FBFCFCC4F10703CCEBCC0C0B
:104E80006344072193FBF1F10022C1EBC101591AE0
:104E900018D04FF0010A15E056F82A100CEB01105B
:104EA00046F82A000CE0072193FBF1F1C1EBC101A8
:104EB0001BF802C0591AEFD10AF1010A46F82AC0BC
:104EC0005B1C521CA242EEDB297841F020017029C4
:104ED00024D1294615F8012F16482B2A16BF2D2A52
:104EE00015F8014B2B240022002308E0834204DA4A
:104EF00003EB83020CEB4203303B6D1C012295F85F
:104F000000C0ACF1300EBEF10A0FEFD32D2C346887
:104F100008BF5B421B19336002B90D46B9F1000F9F
:104F200003D007B90C9DC9F8005050460DB0BDE83C
:104F3000F08F000000E1F50530313233343536377B
:104F40003839616263646566414243444546000006
:104F5000000102030405060708090A0B0C0D0E0FD9
:104F60000A0B0C0D0E0F000001480068704700BFCF
:104F7000F07C002080B56D486D4908604FF46140B9
:104F80006B49486000206A49886000206849C86011
:104F90000020674908610C20654948610020644988
:104FA000886100206249C8616148FEF775FD0028EC
:104FB00001D000F092FB01BD80B55E485E490860FB
:104FC0005FF4E1305C49486000205B498860002064
:104FD0005949C8600020584908610C205649486169
:104FE00000205549886100205349C8615248FEF7A6
:104FF00053FD002801D000F070FB01BD38B586B02C
:105000000400142100226D462800FCF72FFA2068C6
:105010004649884242D1002005904848006850F037
:105020001000464908604548006810F010000590DF
:105030000598002005904248006850F00100404962
:1050400008603F48006810F00100059005984FF493
:105050000070009002200190002002900320039035
:10506000072004906946374800F03AFB4FF480600F
:10507000009002200190012002900320039007205D
:10508000049069462F4800F02BFB002200212520C8
:1050900000F090FD252000F09EFD45E020682549A8
:1050A000884241D1002005902748006850F48020B4
:1050B000254908602448006810F480200590059870
:1050C000002005901E48006850F008001C49086048
:1050D0001B48006810F00800059005984FF4807098
:1050E00000900220019000200290032003900720EE
:1050F00004906946154800F0F3FA4FF400700090F0
:1051000002200190012002900320039007200490C8
:1051100069460E4800F0E4FA00220021272000F042
:1051200049FD272000F057FD07B030BD00100140B9
:10513000887B002000480040CC7B0020443802409F
:10514000303802400000024040380240000C02406B
:1051500070B50400A56DFFF707FF060094F8350051
:10516000022806D080206065002084F834000120E9
:105170003BE02068006830F0160021680860206875
:10518000406930F0800021684861206C002802D11D
:10519000A06C002805D02068006830F00800216865
:1051A00008602068006840084000216808602068A6
:1051B0000068C0070ED5FFF7D7FE801B0628F6D380
:1051C00020206065032084F83500002084F8340036
:1051D00003200AE03F21E06D8140A960012084F8AE
:1051E0003500002084F83400002070BD90F83510A0
:1051F000022903D080214165012009E0052180F8C2
:1052000035100168096849084900006801600020FC
:10521000704770477047704738B50400002525E097
:105220002100A64A2B00DBB206204343D05A89B2A4
:1052300081421AD1A1492A00D2B206204243114428
:10524000D1F802009D4A2B00DBB206214B43D15A14
:1052500000F0E2FB002808D10121994A2B00DBB2C3
:105260000620434302EB0300C1706D1C2800C0B24E
:105270000828D5DB092525E02100904A2B00DBB268
:1052800006204343D05A89B281421AD18B492A0061
:10529000D2B2062042431144D1F80200874A2B00C3
:1052A000DBB206214B43D15A00F0B6FB002808D1EF
:1052B0000121834A2B00DBB20620434302EB0300AB
:1052C000C1706D1C2800C0B20B28D5DB0E2525E06F
:1052D00021007A4A2B00DBB206204343D05A89B220
:1052E00081421AD175492A00D2B2062042431144A4
:1052F000D1F80200714A2B00DBB206214B43D15A90
:1053000000F08AFB002808D101216D4A2B00DBB296
:105310000620434302EB0300C1706D1C2800C0B29D
:105320001128D5DB6548B0F86600A4B284420DD1DF
:105330006249886E6149B1F8661000F06DFB002883
:1053400004D160480078401C5E49087031BD80B5CA
:1053500001685D4A1268914252D15C48007810F0B1
:105360000100002828D15A480088401C584908806C
:1053700056480078C0F30010C0B2002805D0554848
:105380000088401C5349088004E053480088401CB2
:10539000514908805148007801280DD150480088B3
:1053A000411C4F4A118080B2C92805DB00204B49BF
:1053B000087001204B4908704B480068401C4A495E
:1053C000086049480068642806D300204649086000
:1053D0000421464800F033FB4248007801283AD1C6
:1053E00000204049087000204149087000203C49D5
:1053F00008803648007850F00400344908702AE0EC
:1054000000683C490968884225D13048807810F00E
:10541000010000280DD138480088401C364908801A
:1054200035480088322804DB00203349088000F02A
:10543000F3FB32480068401C304908602F48006880
:10544000322806D300202D4908600821274800F0A3
:10545000F6FA00F00FFC01BD10B50068284988423B
:105460002AD100201C49088001201C490870002016
:105470001B490880234800782349234AB2F8262490
:10548000114488702048B0F82604401C1E49A1F839
:1054900026041D48B0F8260440F22341884206DB6A
:1054A00040F64E010022184C2000FBF7DFFF0122DE
:1054B00014491648FEF791FB10BD0000007800204B
:1054C000A87800200E7D0020687A0020E47C00206F
:1054D000047D0020FE7C0020067D00200A7D002047
:1054E000007D00200B7D0020DC7C002000080240B5
:1054F00088000020F87A0020027D0020E07C002057
:10550000001001400D7D0020F46B0020887B0020FE
:1055100070B504000D00002C01D101209DE05C4815
:10552000006810F00700A84209D259480570584891
:10553000006810F00700A84201D001208DE020781B
:10554000800719D52078400705D55248006850F4E7
:10555000E050504908602078000705D54D480068A4
:1055600050F460404B4908604A48016831F0F0014E
:10557000A0680143474801602078C00736D56068BD
:10558000012805D144480068800313D4012064E059
:105590006068022802D06068032805D13E48006890
:1055A000800107D4012058E03B480068800701D4FF
:1055B000012052E03748016889088900606801438A
:1055C00034480160FFF7D0FC06003248006810F054
:1055D0000C006168B0EB810F08D0FFF7C5FC801BA1
:1055E00041F289318842F0D3032036E02848006830
:1055F00010F00700854209D225480570244800684C
:1056000010F00700A84201D0012026E020784007D2
:1056100007D52048016831F4E051E06801431D4896
:1056200001602078000708D51A48006830F460400F
:10563000216950EAC1001749086000F08BFC174946
:10564000144A1268C2F30312895CC8401449086006
:105650001448006800F0C0FC002070BD10480068CD
:10566000704780B5FFF7FAFF0F490A4A1268C2F384
:105670008222895CC84002BD80B5FFF7EFFF0A496E
:10568000044A1268C2F34232895CC84002BD00007D
:10569000003C02400838024000380240A0B902082D
:1056A0000400002000000020E4BA0208012000F0FD
:1056B000B9BC0000704710B50446FEF745FE014630
:1056C00020460969BDE81040084780B500F0B4FCE9
:1056D00000F0D2FC00F0F2FCFCE772B6FEE700003E
:1056E00078B4002200220022002341E0082604E0D2
:1056F000DFF880239042F9D10726F6B213F00302B7
:10570000D2B2920096403543DFF86C231E00B608F3
:1057100042F82650DFF864231268A2434D68ED0278
:1057200000D52243DFF854532A60DFF8542312686F
:10573000A2434D68AD0200D52243DFF844532A60EE
:10574000DFF840231268A2434D68AD0300D5224321
:10575000DFF830532A60DFF830231268A2434D6827
:10576000ED0301D514432200DFF81C4322605B1CCB
:10577000102B80F0AA8001229A400C6814409442B9
:10578000F5D10A7912F00302012A04D00A7912F045
:105790000302022A17D1856803261A00D2B25200EA
:1057A0009640B543CE681A00D2B2520096403543B7
:1057B0008560426801259D40AA434D68C5F30015E8
:1057C0009D402A4342600A7912F00302032A0DD059
:1057D000C56803261A00D2B252009640B5438E68BF
:1057E0001A00D2B2520096403543C5600A7912F0D1
:1057F0000302022A17D11A00D20800EB8202156AAE
:105800000F2613F00702D2B292009640B5430E69FC
:1058100013F00702D2B29200964035431A00D20824
:1058200000EB82021562056803261A00D2B252000C
:105830009640B5430E7916F003061A00D2B2520014
:105840009640354305604A6812F4403F8FD00022ED
:1058500000928E4A126852F480428C4D2A608B4A24
:10586000126812F480420092009A834A1D00AD082B
:1058700052F825500F2613F00302D2B29200964040
:10588000B543834A904201D1002636E7814A9042CF
:1058900001D1012631E7804A904201D102262CE74E
:1058A0007E4A904201D1032627E77D4A904201D1EA
:1058B000042622E77B4A904201D105261DE77A4A59
:1058C00090427FF415AF062617E771BC704770B49D
:1058D000002200220022002364E0082603E0654A3B
:1058E0009042FAD10726F6B213F00302D2B2920028
:1058F0009640B54227D1644A1268A243624D2A609D
:10590000604A1268A2435F4D2A605D4A1268A24352
:105910005B4D2A60594A126832EA0404574A1460FF
:105920000F2413F00302D2B2920014FA02F2524C86
:105930001D00AD0854F8254034EA02024E4C1D000B
:10594000AD0844F82520046803251A00D2B252009D
:105950009540AC4304601A00D20800EB82041A00A0
:10596000D20800EB8202156A0F2613F00702D2B2AA
:1059700092009640B5432562C46803251A00D2B24E
:1059800052009540AC43C460426801249C40A2434D
:105990004260846803251A00D2B252009540AC439D
:1059A00084605B1C102B35D201229A4012EA01045C
:1059B0009442F6D1304A1D00AD0852F825500F260A
:1059C00013F00302D2B2920096403540304A904222
:1059D00001D1002687E72F4A904201D1012682E7B4
:1059E0002D4A904201D102267DE72C4A904201D1F6
:1059F000032678E72A4A904201D1042673E7294A10
:105A0000904201D105266EE7274A90427FF467AFA6
:105A1000062668E770BC7047006989B2084201D069
:105A2000012000E00020C0B27047D2B2002A02D0AC
:105A300089B2816102E089B20904816170474269DB
:105A40000B009BB2134089B2914351EA034181613B
:105A5000704780B515490968020092B2114206D01C
:105A6000010089B2114A116080B2FFF7D5FB01BD78
:105A700000000000001C024008380140083C0140C2
:105A80000C3C0140043C0140003C014044380240D1
:105A9000000002400004024000080240000C0240E6
:105AA000001002400014024000180240143C014063
:105AB00010F00700DFF83C110A684FF6FF010A40BA
:105AC00052EA0022DFF830010243DFF828010260C9
:105AD000704748480068C0F302207047010049B28F
